:020000040800F2
:10000000700D00208D2C0008910300089303000858
:10001000970300089B0300089F03000800000000EE
:10002000000000000000000000000000A303000822
:10003000A503000800000000A7030008A9030008AA
:10004000A72C0008A72C0008A72C0008A72C000844
:10005000A72C0008A72C0008A72C0008A72C000834
:10006000A72C0008A72C0008A72C0008A72C000824
:10007000A72C0008A72C0008A72C0008A72C000814
:10008000A72C0008A72C0008A72C0008A72C000804
:10009000A72C0008A72C0008A72C0008A72C0008F4
:1000A000A72C0008A72C0008A72C0008A72C0008E4
:1000B000A72C000817100008CD170008A72C00086F
:1000C000A72C0008A72C0008A72C0008A72C0008C4
:1000D000A72C00081B1D0008BF150008B71E00084C
:1000E000A72C0008A72C0008A72C0008A72C0008A4
:1000F000A72C0008A72C0008A72C0008A72C000894
:10010000A72C0008A72C0008A72C0008A72C000883
:10011000A72C0008A72C0008A72C0008A72C000873
:10012000A72C0008A72C0008A72C0008A72C000863
:10013000DFF80CD005F0FEFA004800474501000842
:10014000700D002002F038FD4FF4A06003F034FB86
:1001500041F61F4141F2873000F030FF4FF4165056
:1001600001F07CFD4FF4165001F02CFD00F0D4FAA4
:1001700000F05EFB00F071FE00F004FF02F0E8FC0E
:1001800001F052FC01F01AFC00F062FF02F0BAF834
:1001900002F06DF9412002F0A8F901F07BFF00F0B8
:1001A000F5F901F0E1FB00F079FEC72141F61F40AF
:1001B00001F02EFB00F076FF49A005F029FB4BA1D2
:1001C000022001F08DFC40F2DC5002F032FD40F2E2
:1001D000DC5002F02EFD40F2DC5002F02AFD7EE001
:1001E0004C48007898B94C48007850B900204B49E9
:1001F00008704BA1022001F073FC40F2DC5002F0C9
:1002000018FD00F020FC01204349087012E042482C
:100210000078012809D14149087048A1022001F065
:100220005FFC40F2DC5002F004FD00203A49087007
:1002300000F0C2FC4848007820B100204649087010
:1002400001F022F80A21012000F081FE43490880D4
:100250000846008805F018F8804605F01AF80646AA
:100260004FF066323E4B04F09DFF044605F03CF82B
:100270003C4908600846006805F00BF804464FF05A
:100280003332394B05F018F803D2012037490860A2
:1002900002E00020354908603549364800F0B1FDDC
:1002A00002F06FFC02F0A8FB4FF4967002F0C1FC64
:1002B0002F4802782F4801782FA001F06BFA01F047
:1002C000F0FB00F091F900F0DCFE01F003FB01F01F
:1002D00064FB01F086FB01F01BFB01F00AFB7FE7EA
:1002E000B4AEBFDAB2E2CAD40D0A00005B76313098
:1002F0005D5B6D315D5B74355DBBB6D3ADCAB9D3A3
:10030000C3D6C7BBDBBCD2BED3BFD8D6C6CFB5CD54
:10031000B300000016000020040000201700002099
:100320005B7631305D5B6D315D5B74355DBDF8C80A
:10033000EBBED3BCD2C4A3CABD0000005B76313093
:100340005D5B6D315D5B74355DBDF8C8EBB0B2B718
:10035000C0C4A3CABD0000000D00002002000020A0
:1003600066664A3F080000203333F33FB001224263
:10037000010000200000002054454D503A25644300
:100380002020202048554D493A256425250D0A0096
:10039000704700BFFEE700BFFEE700BFFEE700BFFB
:1003A000FEE7704770477047704700000CB50020AB
:1003B000019000906C48006840F480306A49086001
:1003C00000BF6948006800F4003000900198401CAC
:1003D0000190009818B90198B0F5A06FF1D162486A
:1003E000006800F4003010B10120009001E000200E
:1003F00000900098012843D15C48006840F010004C
:100400005A4908600846006820F003000860084662
:10041000006840F002000860534840685249486054
:100420000846406848600846406840F4806048607C
:100430000846406820F47C1048600846406840F454
:10044000E81048600846006840F08070086000BF0F
:100450004548006800F000700028F9D04248406824
:1004600020F00300404948600846406840F0020020
:10047000486000BF3C48406800F00C000828F9D1F3
:100480000CBD10B5FFF792FF10BD10B536480068DF
:1004900040F001003449086008464068344908408B
:1004A0003149486008460068324908402E490860D2
:1004B0000846006820F4802008600846406820F460
:1004C000FE0048604FF41F008860FFF7DAFF4FF02E
:1004D00000602949086010BD10B5002100200022ED
:1004E000214B5B6803F00C0121B1042906D00829D7
:1004F00028D107E0214B224C236027E01F4B204CE2
:10050000236023E0184B5B6803F47010164B5B68A4
:1005100003F48032022303EB904022B9194B43438A
:10052000174C23600DE0104B5B6803F4003323B1DC
:10053000144B4343124C236003E0104B4343104CD5
:10054000236003E00D4B0E4C236000BF00BF064B41
:100550005B68C3F303130C4CE15C094B1B68CB4095
:10056000074C236010BD0000001002400020024034
:100570000000FFF8FFFFF6FE08ED00E000127A0031
:100580001C00002000093D002000002008B50121CA
:10059000042002F0A9FE0121102002F0A5FE4FF474
:1005A0000070ADF8000010208DF8030003208DF8D6
:1005B00002006946124802F0DBFB4FF4007110485C
:1005C00002F083FC0120ADF8000010208DF803003C
:1005D00003208DF8020069460A4802F0C9FB012198
:1005E000084802F074FC08BD0748007818B10120E3
:1005F0000649086002E000200449086070470000D6
:1006000000080140001001400E000020800122423D
:1006100000B585B00121480502F073FE01210820D4
:1006200002F062FEC020ADF8000003208DF8020049
:100630001C208DF803006946F74802F099FBF74843
:1006400003F028F90020ADF808004BF6FF70ADF874
:100650000A003020ADF80C004FF48060ADF80E00B9
:100660000001ADF81000EE4801900121EB4803F0C5
:10067000A8F901A9E94803F026F905B000BD70B555
:1006800004460D4600BF4FF40031E44803F0C0FAC1
:100690000028F8D10121E14803F0B7F900BFE14992
:1006A000DE4803F093FA0028F9D000227821DB48D5
:1006B00003F001FA00BFDC49D84803F087FA0028AC
:1006C000F9D02146D54803F0F0F900BFD649891C7E
:1006D000D24803F07BFA0028F8D02946CF4803F02F
:1006E000E4F900BFD049891CCC4803F06FFA002818
:1006F000F8D00121C94803F094F970BD10B5044643
:1007000021460020FFF7BBFF10BD10B5044621466F
:100710004020FFF7B4FF10BD10B5FFF779FF64204C
:1007200002F087FAAE20FFF7E9FF2020FFF7E6FF8F
:100730001020FFF7E3FFB020FFF7E0FFC820FFF72E
:10074000DDFF0020FFF7DAFF1020FFF7D7FF402082
:10075000FFF7D4FF8120FFF7D1FFFF20FFF7CEFF87
:10076000A120FFF7CBFFA620FFF7C8FFA820FFF7C7
:10077000C5FF3F20FFF7C2FFA420FFF7BFFFD32034
:10078000FFF7BCFF0020FFF7B9FFD520FFF7B6FF4A
:10079000F020FFF7B3FFD920FFF7B0FF2220FFF7CB
:1007A000ADFFDA20FFF7AAFF1220FFF7A7FFDB203B
:1007B000FFF7A4FF2020FFF7A1FF8D20FFF79EFF8A
:1007C0001420FFF79BFFAF20FFF798FF10BD70B517
:1007D00004460D4605F1B001C8B2FFF78FFF1021A6
:1007E00041EA1410FFF78AFF04F00F0141F0010005
:1007F000FFF784FF70BD70B50646002415E004F1D4
:10080000B001C8B2FFF77AFF0020FFF777FF102092
:10081000FFF774FF002504E03046FFF776FF681C01
:10082000C5B2802DF8DB601CC4B2082CE7DB70BDBC
:1008300010B50020FFF7DFFF10BD10B58D20FFF7CA
:100840005DFF1420FFF75AFFAF20FFF757FF10BDE1
:1008500010B58D20FFF752FF1020FFF74FFFAE209D
:10086000FFF74CFF10BD2DE9F047064689461746B5
:100870009A464FF0000800240025BAF1010F03D07A
:10088000BAF1020F5ED125E020E0785D203800F05B
:10089000FF087E2E04DD002609F1010000F0FF09AB
:1008A00049463046FFF793FF002409E008EB480172
:1008B0005E4A02EB4101085DFFF727FF601CC4B2EE
:1008C000062CF3DBB01DC6B2681CC5B2785D0028EB
:1008D000DBD137E032E0785D203800F0FF08782E79
:1008E00004DD002609F1010000F0FF094946304609
:1008F000FFF76DFF002407E004EB08114C4A505C41
:10090000FFF703FF601CC4B2082CF5DB09F10100FE
:10091000C1B23046FFF75BFF002408E004EB08118A
:100920000831434A505CFFF7F0FE601CC4B2082C4B
:10093000F4DB06F10800C6B2681CC5B2785D002879
:10094000C9D100BF00BFBDE8F0872DE9F041804666
:100950000E46174600247D0131464046FFF737FF1B
:1009600000BF06E03349485DFFF7CFFE6D1C601CF9
:10097000C4B2102CF6DB701CC1B24046FFF727FF53
:10098000002406E02B49485DFFF7BFFE6D1C601C8C
:10099000C4B2102CF6DBBDE8F0812DE9F05F06460D
:1009A0000F4690461C46DDF828A04FF0000BE117DB
:1009B00004EB5171C910A4EBC10131B92046E11714
:1009C00004EB5171C1F3C70506E02046E11704EBC3
:1009D0005171C910491CCDB23D4614E0294630463C
:1009E000FFF7F5FEB1460AE059460BF1010B1AF884
:1009F0000100FFF78AFE09F1010000F0FF09C1457F
:100A0000F2DB681CC5B2A542E8DBBDE8F09F10B57B
:100A10000246012011E00000000C0140005400409B
:100A2000801A0600010003008200070038610008F8
:100A3000606300083000002050430B1EA1F1010448
:100A4000E1B2F9D110BD70B5002408E0E2B2102186
:100A500001EB0411C8B20021FFF777FF641C062CDC
:100A6000F4DB6E4802786EA1704804F0E1FE0123C9
:100A70006E4A02210020FFF7F6FE6D4802786DA154
:100A80006A4804F0D5FE0123684A02214020FFF79E
:100A9000EAFE6B48007820B16AA1644804F0C8FE01
:100AA00003E06BA1614804F0C3FE01235F4A032108
:100AB0000020FFF7D8FE6948007820B168A15B48A4
:100AC00004F0B6FE03E069A1584804F0B1FE01232A
:100AD000564A03214020FFF7C6FE6748007820B140
:100AE00066A1524804F0A4FE03E067A14F4804F059
:100AF0009FFE01234D4A04210020FFF7B4FE654804
:100B0000007820B164A1494804F092FE03E064A19A
:100B1000464804F08DFE0123444A04214020FFF79B
:100B2000A2FE6148006804F0B4FB05462A460B4665
:100B30005EA13E4804F07CFE01233C4A05210020D2
:100B4000FFF791FE4FF480515B4802F0A4F920B901
:100B50005AA1364804F06CFE03E05BA1334804F070
:100B600067FE0123314A05214020FFF77CFE5848EB
:100B7000007820B157A12D4804F05AFE03E058A197
:100B80002A4804F055FE0123284A06210020FFF7D9
:100B90006AFE5648007820B155A1244804F048FE6A
:100BA00003E056A1214804F043FE01231F4A062119
:100BB0004020FFF758FE70BD70B5062407E0E2B292
:100BC000A11F0907080E0021FFF7BFFE641C0A2CB5
:100BD000F5DB3548006804F05CFB05462A460B4609
:100BE00032A1124804F024FE0223104A03210020FF
:100BF000FFF739FE3648007820B136A10B4804F0E3
:100C000017FE03E036A1094804F012FE0223074A4A
:100C100005210020FFF727FE70BD00000000002026
:100C200054454D503A25644300000000E006002082
:100C30000100002048554D493A2564252500000053
:100C40000F000020444F4F523A6F6E20000000000A
:100C5000444F4F523A6F66660000000012000020B9
:100C600057494E444F573A6F6E20000057494E4443
:100C70004F573A6F666600001100002041545246FB
:100C8000414E3A6F6E20000041545246414E3A6F39
:100C9000666600000E0000204C45443A6F6E20004E
:100CA0004C45443A6F666600080000204D513133D0
:100CB000353A252E3266000000100140424545506D
:100CC0003A6F666620000000424545503A6F6E005C
:100CD0001500002050454F504C453A5945530000EF
:100CE00050454F504C453A4E4F2000001400002014
:100CF000464952453A59455320000000464952455D
:100D00003A4E4F0010B56248006820F00F0060496D
:100D100008600846006840F00300086000205D4954
:100D20000860142001F085FF01205B49C1F88001B3
:100D30001E2001F05AFF10BD10B500245448006871
:100D400020F00F00524908600846006840F0080093
:100D5000086004E0601CC4B2012001F046FF4D4869
:100D60008038006808B1642CF4DB642C01DB0120BE
:100D700010BD002404E0601CC4B2012001F035FF66
:100D800044488038006808B9642CF4DB642C01DB2B
:100D90000120EDE70020EBE710B5002404E0601C23
:100DA000C4B2012001F021FF3A488038006808B140
:100DB000642CF4DB002404E0601CC4B2012001F0C8
:100DC00014FF34488038006808B9642CF4DB28200C
:100DD00001F00BFF2F488038006808B1012010BDDA
:100DE0000020FCE770B50024002506E06006040E34
:100DF000FFF7D2FF0443681CC5B2082DF6DB20467E
:100E000070BD7CB505460E46FFF77CFFFFF794FFEB
:100E1000F8B9002405E0FFF7E5FF0DF80400601CB9
:100E2000C4B2052CF7DB9DF800009DF801100844C2
:100E30009DF8021008449DF8031008449DF8041022
:100E4000884208D19DF8000030709DF8020028709B
:100E500001E001207CBD0020FCE708B50121042051
:100E600002F042FA0120ADF8000010208DF80300D6
:100E700003208DF802006946054801F079FF012141
:100E8000034802F022F8FFF73DFFFFF755FF08BDCA
:100E900000080140800121420000214200B587B0D6
:100EA00001214FF4017002F01FFA4FF4004002F0EC
:100EB0007FF90220ADF8040000208DF8070001A999
:100EC0002E4801F055FF2E4802F0E6FE0020029069
:100ED0008DF80C008DF80D004FF460200490002078
:100EE000059001208DF8180002A9254802F0FBFEAC
:100EF0000121234802F023FF214802F042FF00BFF6
:100F00001F4802F043FF0028FAD11D4802F048FFB5
:100F100000BF1B4802F049FF0028FAD107B000BD0E
:100F200010B50446072301222146154802F073FF3D
:100F30000121134802F043FF00BF0221104803F0D3
:100F4000AFF80028F9D00E4802F0CCFF10BD2DE913
:100F5000F04107460C460025002608E03846FFF71A
:100F6000DFFF0544052001F064FE701CC6B2A642F6
:100F7000F4DBB5FBF4F080B2BDE8F081000801407D
:100F80000024014008B50121102002F0ADF94FF412
:100F90008050ADF8000010208DF8030003208DF87C
:100FA00002006946044801F0E3FE4FF48051024814
:100FB00001F08DFF08BD0000001001407FB505461F
:100FC0000C460121022002F09CF9ADF80850ADF862
:100FD00004400020ADF80A00ADF8060001A9194848
:100FE00003F080FA01221146164803F0F2FD1D209D
:100FF0008DF8000002208DF8010003208DF802001A
:1010000001208DF80300684602F0DBFB01210D484A
:1010100003F0C4FD7FBD10B501210A4804F087F834
:1010200070B10121074804F093F80748006808B937
:10103000012000E0002004490860012003490870F5
:1010400010BD000000040040A40121420D0000205A
:1010500008B50121082002F047F94FF40050ADF81F
:10106000000010208DF8030003208DF8020069466F
:10107000094801F07DFE4FF40051074801F025FFBB
:1010800008BD0648007818B100200549086002E054
:101090000120034908607047000C01401400002043
:1010A000B481214270B50A2601254FF4165000F094
:1010B000FCFA32E00120D24908600A2001F0B9FDB3
:1010C000D0A000F067FB0020D049C1F890010024B7
:1010D0000AE0CF48008800F4004000B106E0052097
:1010E00001F0A7FD601CC4B20A2CF2DB00BFC848A7
:1010F000008800F4004080B1C54805780020C4494C
:101100000880042D09D1C34800784F2805D1C14873
:1011100040784B2801D1002504E0301EA6F10101E2
:10112000CEB2C7D100BF06B90125284670BD70B543
:101130000F2630E00120B24908600A2001F079FD55
:10114000B5A000F027FB00250AE00A2001F071FDA0
:10115000AF48008800F4004000B103E0681CC5B24D
:10116000142DF2DB00BF0020A5490860A8480088C4
:1011700000F4004078B1A64804780020A449088013
:101180000D2C08D1A34800782B2804D1A1488079E0
:101190003038C4B204E0301EA6F10101CEB2C9D18C
:1011A00000BF06B9FF24204670BD2DE9F041054679
:1011B0000F272FE00120924908600A2001F039FD35
:1011C000294698A000F0E6FA00209049C1F8900165
:1011D00000260AE08E48008800F4004000B106E0D6
:1011E000052001F026FD701CC6B2142EF2DB00BFF4
:1011F0008748008800F4004060B1854804780020EA
:1012000083490880042C05D1824800784F2801D1F9
:10121000002404E0381EA7F10101CFB2CAD100BFFB
:1012200007B9FF242046BDE8F08170B504460120CF
:10123000734908600A2001F0FCFC214679A000F007
:10124000A9FA00260AE07248008800F4004000B1C4
:1012500006E00A2001F0EDFC701CC6B2322EF2DB73
:1012600000BF0020664908606948008800F400401B
:1012700048B16748057800206549088065494855A8
:101280006AA004F0C5FA70BD10B56148008800F48A
:10129000004000287DD05E48007866490870002034
:1012A0005C49644A1278885463A15A4803F06CFF81
:1012B00050B901206249087062A1022000F010FCC0
:1012C00040F2DC5001F0B5FC63A1524803F05CFF32
:1012D00050B900205A49087062A1022000F000FCB9
:1012E00040F2DC5001F0A5FC63A14A4803F04CFF3A
:1012F00050B901206349087063A1022000F0F0FB9F
:1013000040F2DC5001F095FC01206549087065A1B0
:10131000404803F039FF50B900205A49087064A1D1
:10132000022000F0DDFB40F2DC5001F082FC0120E5
:101330005B49087064A1374803F026FF50B90120CB
:101340006449087064A1022000F0CAFB40F2DC503E
:1013500001F06FFC66A12F4803F016FF50B9002082
:101360005C49087065A1022000F0BAFB40F2DC5035
:1013700001F05FFC67A1274803F006FF60B9012078
:101380006749087067A1022000F0AAFB40F2DC5018
:1013900000E034E001F04DFC67A11E4803F0F4FECC
:1013A00050B900205E49087066A1022000F098FB49
:1013B00040F2DC5001F03DFC67A1164803F0E4FE6A
:1013C00050B901206749087067A1022000F088FB2E
:1013D00040F2DC5001F02DFC68A10E4803F0D4FE71
:1013E00050B900205F49087067A1022000F078FB27
:1013F00040F2DC5001F01DFC00200549088010BDC2
:101400009001224241540D0A0000000000002242D7
:10141000B0060020E007002041542B524F4C453FBE
:101420000D0A000025730D0A000000000D0A257347
:10143000000000000C0000202B4C4544204F4E00C3
:101440000E0000205B7631305D5B6D315D5B743585
:101450005DB5C6D2D1BFAA002B4C4544204F4646AD
:10146000000000005B7631305D5B6D315D5B743593
:101470005DB5C6D2D1B9D8002B57494E444F57203D
:101480004F4E0000120000205B7631305D5B6D3105
:101490005D5B74355DB4B0C1B1D2D1BFAA000000AC
:1014A000130000202B57494E444F57204F4646000B
:1014B0005B7631305D5B6D315D5B74355DB4B0C1C1
:1014C000B1D2D1B9D80000002B41495246414E203B
:1014D0004F4E0000110000205B7631305D5B6D31B6
:1014E0005D5B74355DB7E7C9C8D2D1BFAA00000003
:1014F0002B41495246414E204F4646005B763130E3
:101500005D5B6D315D5B74355DB7E7C9C8D2D1B93C
:10151000D80000002B444F4F52204F4E00000000D7
:101520000F0000205B7631305D5B6D315D5B7435A3
:101530005DC3C5D2D1BFAA002B444F4F52204F46A6
:10154000460000005B7631305D5B6D315D5B74356C
:101550005DC3C5D2D1B9D8002B534F434B4554205E
:101560004F4E0000100000205B7631305D5B6D3126
:101570005D5B74355DB4B0D2D1BFAA002B534F432D
:101580004B4554204F4646005B7631305D5B6D31F4
:101590005D5B74355DB4B0D2D1B9D80010B50446E6
:1015A00044B10021934803F08DFD0121914803F0DF
:1015B000F5FA03E000218F4803F0F0FA10BD10B5F2
:1015C00040F225518C4802F0B3F800B38A4802F08B
:1015D0002FF8C4B289480088C82812DA002185484B
:1015E00003F070FD8548008810B90120FFF7D6FF91
:1015F000824801880088401C804A108080484454FA
:1016000005E07E48008840F400407C49088010BD19
:101610007FB505460C460121042001F072FEADF8AD
:101620000450ADF800400020ADF80600ADF802000F
:101630006946704802F056FF012211466D4803F0DA
:10164000C8FA1E208DF80C0000208DF80D00022035
:101650008DF80E0001208DF80F0003A802F0B1F8FC
:101660007FBD70B58CB006460C4615460121084674
:1016700001F02DFE304602F037FD01940295102056
:101680000390002004900590802006900020079091
:10169000089009904FF480500A9000200B9001A907
:1016A000304602F0C3FD0CB070BD10B586B00446E4
:1016B0000121042001F018FE0121480401F021FE5F
:1016C0004D4801F075FE0420ADF8100003208DF8A0
:1016D000120018208DF8130004A94A4801F048FBB5
:1016E0000820ADF8100004208DF8130004A9454827
:1016F00001F03EFB00940020ADF80400ADF80600B8
:10170000ADF80800ADF80C000C20ADF80A006946F1
:10171000394801F090FE01228021374801F048FF4E
:10172000394A3549091D3948FFF79BFF01213248E5
:1017300001F00DFF012240F225512F4801F013FF67
:1017400026208DF8140000208DF815008DF8160065
:1017500001208DF8170005A802F033F841F61F416B
:101760006320FFF755FF002024490880FFF716FF8C
:1017700006B010BD70B504460D460021204602F0AB
:1017800080FD2946204602F091FD0121204602F00D
:1017900078FD70BD0FB438B505A800901A48009ABE
:1017A000049904F059F80020009000BF174802F097
:1017B0007FFD0028FAD1144803F0DFFCC4B22146B3
:1017C0001248FFF7D7FF38BC5DF814FB10B50121B4
:1017D000084803F0ACFC60B10848008840F40040C1
:1017E000064908800121034803F0B2FC0020FFF7FE
:1017F000D5FE10BD0008004000440040B0060020A7
:10180000E007002000080140180700208000024087
:1018100030B589B005460C460121052001F064FD74
:1018200018208DF82300C020ADF8200003208DF88B
:10183000220008A9454801F09BFA0320ADF82000DA
:1018400018208DF8230003208DF8220008A94048B5
:1018500001F08EFA0121022001F053FD0020ADF8C5
:101860001A00ADF81850ADF81440ADF8160005A9EF
:10187000384802F037FE6020ADF804000120ADF8D2
:1018800006000020ADF80C0001A9324802F067FE06
:101890000821304803F0B2FA01A92E4802F0A1FE57
:1018A00008212C4803F0B3FA01A92A4802F0E6FE09
:1018B0000821284803F0B8FA01A9264802F029FFB8
:1018C0000821244803F0B9FA0121224803F066F9FF
:1018D00009B030BD10B52048007828B14FF4C87168
:1018E0001C4803F0F7FB03E07D211A4803F0F2FBEC
:1018F00010BD10B51948007820B17D21154803F0BE
:10190000EBFB04E04FF4FA71124803F0E5FB10BD65
:1019100010B51348007801280AD112480078012830
:1019200006D100200F490870052000F0D6FB0CE01E
:101930000B48007848B90B480078012805D10020F1
:1019400008490870052000F01DFC10BD000801408A
:10195000000C0140000400400F0000201000002097
:10196000120000201300002008B50121102001F012
:10197000BBFC4FF40070ADF8000010208DF80300A0
:1019800003208DF802006946094801F0F1F94FF48F
:101990000071074801F09BFA08BD0648007818B1AD
:1019A00001200549086002E00020034908607047F3
:1019B0000010014011000020A401224208B50121BD
:1019C000102001F091FC4020ADF8000004208DF8BB
:1019D000030003208DF8020069460F4801F0C8F9A2
:1019E00008BD10B540210C4801F055FA044664B911
:1019F00001200A4908700A48007818B101200949F5
:101A0000086002E0002007490860012C02D1002094
:101A10000249087010BD00000010014015000020B0
:101A200016000020B001224208B50121142001F067
:101A30005BFC0121264801F06CFA4FF40040ADF840
:101A4000000048208DF803006946224801F090F913
:101A500008BD10B5044614B101201F4908701E4886
:101A6000007898B14FF400411A4801F014FA68B9AF
:101A70000A2001F0DEF80020174908704FF40041F9
:101A8000144801F008FA50B9022010BD4FF400418B
:101A9000104801F000FA012801D10F490870002018
:101AA000F3E710B500240020FFF7D3FF0446022C13
:101AB00008D1FEF7BDFE0948007880F00100074913
:101AC000087003E00A2001F0B4F800BF00BF10BDA9
:101AD0000002300000080140B2060020160000207D
:101AE0002DE9F0418EB080460E4600270024304696
:101AF00003F043FBC5B2FD208DF8040000208DF8F3
:101B00000500E81CC0B28DF8060001208DF8070022
:101B100040EA0810C0B28DF8080000BF03E001A839
:101B2000005D4740641C052CF9D3002402E0305DC1
:101B30004740641CAC42FAD32A4631460DF10900F5
:101B400003F009FB681D01A90F54A81DC1B201A82B
:101B500000F02AF80EB0BDE8F08170B504462046CA
:101B600003F00BFBC5B22946204600F01DF870BDFE
:101B700000BF704700BFE74A128802F04002002A07
:101B8000F9D0C2B2E34B1B1D1A807047014600BF5B
:101B9000704700BFDF49098801F040010029F9D0F2
:101BA000DC49091D0880704730B502460B46002409
:101BB00005E012F8010BFFF7ECFF601CC4B29C4279
:101BC000F7DB30BD10B586B00446012144F20400B5
:101BD00001F08AFB4FF40070ADF8140003208DF87B
:101BE000160018208DF8170005A9CB4801F0C0F8A1
:101BF0004FF48060ADF8140004208DF8170005A99B
:101C0000C54801F0B5F825208DF8000003208DF8B7
:101C100001008DF8020001208DF80300684601F0F4
:101C2000D0FD01940020ADF80800ADF80A00ADF831
:101C30000C00ADF810000C20ADF80E0001A9B7485B
:101C400001F0F9FB012240F22551B44801F08BFC70
:101C50000121B24801F07BFC06B010BD10B586B082
:101C600004460121082001F03FFB0121880401F016
:101C700048FB0121AA4801F04CF94FF48060ADF80F
:101C8000140003208DF8160018208DF8170005A900
:101C9000A44801F06DF84FF40060ADF81400042082
:101CA0008DF8170005A99F4801F062F827208DF8EC
:101CB000000003208DF801008DF8020001208DF84E
:101CC0000300684601F07DFD01940020ADF8080096
:101CD000ADF80A00ADF80C00ADF810000C20ADF81E
:101CE0000E0001A98B4801F0A6FB012240F225510C
:101CF000884801F038FC0121864801F028FC41F6B3
:101D00001F416320FFF75AF900208749088000210E
:101D1000864802F043FF06B010BD10B540F22551D1
:101D20007E4801F005FD002878D040F225517B481F
:101D300001F028FD794801F07BFCC4B200BF372CCC
:101D400055D008DCA4F13100062868D2DFE800F0A5
:101D5000121B26323B44622C7BD006DC382C52D03E
:101D6000392C5DD0612C5AD166E0632C7DD0642C77
:101D7000F9D189E06EA10120FFF7B2FE4FF4FA70AD
:101D800000F057FF92E001206E4908706EA1FFF746
:101D9000A7FE4FF4FA7000F04CFF87E0002069497D
:101DA00008706EA10120FFF79BFE4FF4FA7000F05F
:101DB00040FF7BE06EA10120FFF792FE4FF4FA7026
:101DC00000F037FF72E070A10120FFF789FE4FF4A9
:101DD000FA7000F02EFF69E001207149087071A1CE
:101DE000FFF77EFE4FF4FA7000F023FF5EE0002064
:101DF0006B49087071A10120FFF772FE40F2DC50C0
:101E000000F017FF52E001207249087072A1FFF73D
:101E100067FE4FF4FA7000F00CFF47E04AE03CE048
:101E200000206C49087071A10120FFF759FE4FF4A2
:101E3000FA7000F0FEFE39E001207149087071A1CE
:101E4000FFF74EFE4FF4FA7000F0F3FE2EE000E0D4
:101E50000BE000206A4908706FA10120FFF740FEE7
:101E60004FF4FA7000F0E5FE20E07048027870A1AF
:101E7000007803F0DDFC70A10120FFF731FE4FF484
:101E8000FA7000F0D6FE11E073A10120FFF728FEE2
:101E90004FF4FA7000F0CDFE08E076A10120FFF7C4
:101EA0001FFE4FF4FA7000F0C4FE00BF00BF002018
:101EB0007649088010BD10B540F22551154801F053
:101EC00037FCF8B1134801F0B3FBC4B216480088E0
:101ED00000F40040B0B914480088C82813DA002183
:101EE000124803F0EFF81048008818B901210F4894
:101EF00002F054FE0C4801880088401C0A4A1080F9
:101F00006348445405E00848008840F4004006490E
:101F1000088010BD00480040000801400038014022
:101F200010001400000C0140B40600200004004022
:101F30005B76335D5B6D315D5B74355DCED2D4DA3B
:101F4000000000000E0000205B76335D5B6D315DAC
:101F50005B74355DB5C6BFAAC1CB00005B76335D4F
:101F60005B6D315D5B74355DB5C6D2D1B9D800000B
:101F70005B76335D5B6D315D5B74355DB5E7CAD310
:101F8000D2D1BFAA000000005B76335D5B6D315D8E
:101F90005B74355DB5E7CAD3D2D1B9D80000000073
:101FA000110000205B76335D5B6D315D5B74355DE8
:101FB000B7E7C9C8D2D1BFAA000000005B76335D85
:101FC0005B6D315D5B74355DB7E7C9C8D2D1B9D8F7
:101FD000000000000F0000205B76335D5B6D315D1B
:101FE0005B74355DC3C5BFAAC1CB00005B76335DB2
:101FF0005B6D315D5B74355DD2D1B9D8B1D5000070
:10200000100000205B76335D5B6D315D5B74355D88
:10201000BAC3B5C4000000005B76335D5B6D315D13
:102020005B74355DB4B0B9D8C1CB000000000020AE
:1020300061783A252E3264005B76335D5B6D315DED
:102040005B74355DBDF1CCEC74656D706572617467
:10205000757265B6C82000005B76335D5B6D315DDF
:102060005B74355DCCECC6F8BADCBAC320CEA2B73F
:10207000E70000005B7633305B6D315D5B74355D8E
:10208000C7EBD4D9CBB5D2BBB1E90000B60600206E
:10209000A808002008B50121082001F025F91E201C
:1020A000ADF8000003208DF8020010208DF8030029
:1020B0006946694800F05CFE0221674800F007FFAE
:1020C0000421654800F003FF0821634800F0FFFE8B
:1020D0001021614800F0FBFE08BD70B504460025E4
:1020E0004CE002215C4800F0F0FE04215A4800F068
:1020F000ECFE0821584800F0EAFE1021564800F096
:10210000E6FE0A2000F095FD0221534800F0DFFEB4
:102110000421514800F0D9FE08214F4800F0D5FEB7
:1021200010214D4800F0D3FE0A2000F082FD02216C
:10213000494800F0CCFE0421474800F0C8FE0821C1
:10214000454800F0C2FE1021434800F0BEFE0A20C0
:1021500000F06FFD0221404800F0B7FE04213E4828
:1021600000F0B5FE08213C4800F0B1FE10213A48CD
:1021700000F0ABFE0A2000F05CFD6D1C6001A8427F
:10218000AFDA70BD70B5044600254CE0022132483C
:1021900000F09BFE0421304800F097FE08212E48F5
:1021A00000F095FE10212C4800F091FE0A2000F06E
:1021B00040FD0221284800F088FE0421264800F056
:1021C00086FE0821244800F082FE1021224800F0FB
:1021D0007CFE0A2000F02DFD02211F4800F077FE52
:1021E00004211D4800F073FE08211B4800F06DFE1D
:1021F0001021194800F069FE0A2000F01AFD0221A2
:10220000154800F064FE0421134800F05EFE08212A
:10221000114800F05AFE10210F4800F058FE0A2025
:1022200000F007FD6D1C6001A842AFDA70BD10B56B
:102230000221094800F049FE0421074800F045FE4C
:102240000821054800F041FE1021034800F03DFE42
:10225000642000F0EEFC10BD0010014008B5012123
:10226000042001F041F81020ADF8000003208DF8A3
:10227000020010208DF803006946284800F078FD20
:102280000121042001F030F82020ADF800000320E7
:102290008DF8020010208DF8030069461F4800F0F9
:1022A00067FD0121042001F01FF88020ADF8000037
:1022B00003208DF8020010208DF8030069461748AE
:1022C00000F056FD0121042001F00EF84020ADF889
:1022D000000004208DF803006946104800F048FD16
:1022E0000121082001F000F80120ADF800000320D2
:1022F0008DF8020010208DF803006946084800F0B0
:1023000037FD08BD10B5FFF7A9FF0121044800F013
:10231000DCFD1021014800F0D8FD10BD000801408F
:10232000000C014070B50446002520E004F0800058
:1023300020B18021FE4800F0C8FD03E08021FC4868
:1023400000F0C5FDC82000F050FC2021F84800F046
:10235000BEFDC82000F049FC2021F54800F0B5FD85
:10236000C82000F042FC6006040E681CC5B2082DAF
:10237000DCDB70BD70B500251CE06006040E20217A
:10238000EB4800F0A4FDC82000F02FFC4021E848F5
:1023900000F081FD012801D144F00104C82000F0C3
:1023A00024FC2021E24800F090FDC82000F01DFC34
:1023B000681CC5B2082DE0DB204670BD70B5044630
:1023C0007E2000EA440040F080051021D84800F04B
:1023D0007EFD2846FFF7A6FFFFF7CCFF064610213B
:1023E000D34800F072FD304670BD70B504460D460E
:1023F0007E2000EA44061021CD4800F068FD3046FA
:10240000FFF790FF2846FFF78DFF1021C84800F026
:102410005CFD70BD70B505460C462846FFF7CEFF43
:10242000064646EA04012846FFF7DFFF70BD70B597
:1024300005460C462846FFF7C1FF064626EA04017A
:102440002846FFF7D2FF70BD10B51420FFF7B6FF86
:10245000044604F0030018B903211420FFF7DAFF43
:1024600010BD10B503211420FFF7E1FF10BD10B51A
:102470000121B04800F029FD012000F0B6FB012148
:10248000AC4800F024FD012000F0AFFB0121A94879
:1024900000F01BFD012000F0A8FB0F210120FFF739
:1024A000A4FF00BF0120FFF789FF00F01000002803
:1024B000F8D1012000F099FB3D211120FFF795FF95
:1024C0001E212D20FFF791FF00212C20FFF78DFF0B
:1024D0008D212A20FFF789FF3E212B20FFF785FF62
:1024E00040211520FFF781FF10BD10B50446412C97
:1024F00024D108210846FFF79AFF3D211120FFF75C
:1025000074FF86211720FFF770FF7F212620FFF739
:102510006CFF1E212D20FFF768FF00212C20FFF704
:1025200064FF8D212A20FFF760FF3E212B20FFF75B
:102530005CFF022000F059FBFFF786FF10BD2DE97C
:10254000FE4F0646884691469A46DDF830B0BB20DD
:1025500002900020019000900C2E06D00E2E09D182
:10256000122001901020009005E07720019030208B
:10257000009000E000BF00BF019840F08001022001
:10258000FFF733FF80210420FFF751FF00210120D6
:10259000FFF72BFF80210A20FFF73CFF002505E015
:1025A00018F805100920FFF720FF6D1C4D45F7D3E3
:1025B00031460120FFF719FF0C2E03D180210D2099
:1025C000FFF728FF4FF47A7500BF0420FFF7F6FEEF
:1025D00004466D1E35B104F0010018B90098204082
:1025E0000028F2D080210D20FFF721FF95B30620AF
:1025F000FFF7E4FE00F01B0068BB26200290019864
:10260000204000F0010008B1CC2002900C2E24D113
:102610000A20FFF7D3FE04460C20FFF7CFFE00F0A0
:1026200007072FB1601E07EBC000CBF8000002E0E7
:10263000E000CBF8000004B90124122C00DD1224C4
:10264000002505E00920FFF7B9FE0AF805006D1C1A
:10265000A542F7D301E0BB20029080210C20FFF7B8
:10266000D9FE00210120FFF7C0FE0298BDE8FE8FD1
:1026700070B588B005460C4608210846FFF7D7FE1E
:1026800007210D20FFF7B1FE03211420FFF7C2FE42
:102690008DF80C5002A803AB012203A900900C2076
:1026A000FFF74DFF0646262E09D10298102806D1C5
:1026B0009DF80C0020709DF80D00607000E0BB26B6
:1026C000304608B070BDF0B587B005460027082138
:1026D0000846FFF7ACFE00210D20FFF786FE8021A3
:1026E0000E20FFF7A4FE93208DF8080020208DF81F
:1026F000090001A802AB022202A900900C20FFF7FA
:102700001EFF0646262E10D1002407E002A8005D19
:10271000285502A8005D4740601CC4B2042CF5DBBC
:1027200002A8005DB84200D0BB2680210E2003E045
:1027300000080140000C0140FFF76CFE304607B076
:10274000F0BD2DE9F04107468846154604210520D5
:10275000FFF76DFE00210120FFF747FE80210A20D0
:10276000FFF758FE002405E0395D0920FFF73DFE24
:10277000601CC4B24445F7DB03210120FFF735FE9E
:10278000FF2400BF0520FFF719FE0646601EC4B2F5
:102790001CB106F004000028F4D02220FFF70EFE42
:1027A00028702120FFF70AFE6870BDE8F08170B53F
:1027B00088B0054693208DF80C0070208DF80D0030
:1027C00000208DF8120000240BE0295D03AAA01C54
:1027D00011549DF81200295D48408DF81200601CCC
:1027E000C4B2042CF1DB0DF11302072103A8FFF79B
:1027F000A8FF08210846FFF71AFE02A803AB09222A
:1028000003A900900C20FFF79AFE0646262E03D15E
:102810000298182800D100E0BB26304608B070BDF1
:102820002DE9F04387B006460F46904699468DF84D
:1028300008608DF80970002406E018F8041002AA58
:10284000A01C1154601CC4B2062CF6DB002407E067
:1028500019F8041002AA04F108001154601CC4B253
:10286000062CF5DB01A802AB0C2202A900900E2079
:10287000FFF765FE0546262D05D10820FFF79EFDD2
:1028800000F0080000B9BB25284607B0BDE8F0837A
:10289000F0B587B006460F46A0208DF808008DF8E9
:1028A00009600DF10A02022102A8FFF74AFF01A800
:1028B00002AB042202A900900C20FFF740FE05465F
:1028C000262D08D10198042805D19DF8080000F0B4
:1028D0000F000A2800D0BB25262D22D1002404E0B9
:1028E000385D02A90855601CC4B2102CF8DB06AA9A
:1028F000102102A8FFF725FF01A802AB122202A9AE
:1029000000900C20FFF71BFE0546262D08D10198EC
:10291000042805D19DF8080000F00F000A2800D017
:10292000BB25284607B0F0BDF0B587B005460E467A
:1029300030208DF808008DF809500DF10A020221AF
:1029400002A8FFF7FEFE01A802AB042202A9009034
:102950000C20FFF7F4FD0746262F0CD10198902894
:1029600009D1002404E002A8005D3055601CC4B207
:10297000102CF8DB00E0BB27384607B0F0BD00B5EF
:1029800087B050208DF8080000208DF809000DF167
:102990000A02022102A8FFF7D4FE01A802AB04221A
:1029A00002A900900C20FFF7CAFD262007B000BD49
:1029B000F8B504460D4617461E46002000906946AD
:1029C0005220FFF755FE6846FFF77DFE2046FFF7D1
:1029D000EEFE23462A4610216020FFF721FF27B193
:1029E00031461020FFF7A0FF03E031461020FFF72B
:1029F0004FFFFFF7C4FFF8BD70B58CB003A952209C
:102A0000FFF736FE0646262804D003A95220FFF71A
:102A10002FFE0646262E50D103A8FFF754FE262887
:102A20004BD19DF80F009DF80E10CDE900109DF8D8
:102A30000D309DF80C2022A104A802F0F9FE04A993
:102A400022A002F0E5FE00240BE02148005D04A96D
:102A5000095D884201D1012501E000250824601CA0
:102A6000C4B2082CF1DB012D0FD11AA10220FFF70F
:102A700037F840F2DC5000F0DCF81CA002F0C8FE91
:102A800001202049087000250EE01FA10220FFF759
:102A900027F840F2DC5000F0CCF821A002F0B8FE9C
:102AA000002018490870002500BF03A8FFF70BFE9F
:102AB0002628FAD020A002F0ABFE0CB070BD0000BA
:102AC00025642564256425640000000025730A0040
:102AD000B80600205B7631305D5B6D315D5B74352F
:102AE0005DBFA8BAC5D5FDC8B700000074302E740C
:102AF00078743D22B6C1C8A1B3C9B9A622FFFFFFB1
:102B000000000000170000205B7631305D5B6D3106
:102B10005D5B74355DBFA8BAC5B4EDCEF3000000AF
:102B200074302E7478743D22B4EDCEF3BFA8BAC5CC
:102B300022FFFFFF0000000074302E7478743D22E5
:102B4000C7EBB2E5C8EB4943BFA822FFFFFF000077
:102B500008B50121042000F0C7FB4FF48070ADF8E8
:102B6000000004208DF8030003208DF80200694660
:102B70000E4800F0FDF84FF480710C4800F0A7F902
:102B800008BD10B54FF48071084800F084F9044680
:102B9000012C04D10020064908700649086024B9B8
:102BA0000120034908700349086010BD0008014076
:102BB00014000020B001224210B56FF0040000F0B4
:102BC0004AFE2E4800682E49B0FBF1F02D490870EE
:102BD0000846007800EB4001C1EBC0104FF6FF71D2
:102BE00001EAC0002849088010BD0146254A127834
:102BF0004A434FF0E0235A6100229A611A46126953
:102C000042F001021A6100BF4FF0E022106900F0AB
:102C100001021AB100F48032002AF5D04FF0E02210
:102C2000126922F001024FF0E0231A6100229A613A
:102C300070470146144A12884A434FF0E0235A6114
:102C400000229A611A46126942F001021A6100BF1D
:102C50004FF0E022106900F001021AB100F4803256
:102C6000002AF5D04FF0E022126922F001024FF065
:102C7000E0231A6100229A61704700001C000020C6
:102C800000127A00C4060020C606002006488047CD
:102C900006480047FEE7FEE7FEE7FEE7FEE7FEE741
:102CA000FEE7FEE7FEE7FEE78B04000831010008BF
:102CB00010B50446CC48844208D10121042000F01C
:102CC0002DFB0021042000F029FB46E0C748844288
:102CD00008D10121082000F021FB0021082000F08C
:102CE0001DFB3AE0C248844208D10121102000F0C7
:102CF00015FB0021102000F011FB2EE0BD4884429E
:102D000008D10121202000F009FB0021202000F043
:102D100005FB22E0B848844208D10121402000F0A0
:102D2000FDFA0021402000F0F9FA16E0B348844291
:102D300008D10121802000F0F1FA0021802000F06C
:102D4000EDFA0AE0AE48844207D10121801500F077
:102D5000E5FA0021A01500F0E1FA10BD10B501213F
:102D6000084600F0DBFA0021012000F0D7FA10BD80
:102D70002DE9F04102460025002600200023002412
:102D8000002791F803C00CF00F0591F803C00CF078
:102D9000100CBCF1000F03D091F802C04CEA0505FD
:102DA00091F800C0BCF1000F31D0146800202BE076
:102DB0004FF0010C0CFA00F3B1F800C00CEA030666
:102DC0009E4220D183004FF00F0C0CFA03F7BC4356
:102DD00005FA03FC4CEA040491F803C0BCF1280F87
:102DE00006D14FF0010C0CFA00FCC2F814C00AE046
:102DF00091F803C0BCF1480F05D14FF0010C0CFA5B
:102E000000FCC2F810C0401C0828D1D31460B1F8EF
:102E100000C0BCF1FF0F34DD546800202EE000F14B
:102E2000080C4FF0010808FA0CF3B1F800C00CEAE6
:102E300003069E4221D183004FF00F0C0CFA03F7DA
:102E4000BC4305FA03FC4CEA040491F803C0BCF14E
:102E5000280F05D100F1080C08FA0CF8C2F814800C
:102E600091F803C0BCF1480F07D100F1080C4FF0F6
:102E7000010808FA0CF8C2F81080401C0828CED3CC
:102E80005460BDE8F0814FF6FF710180022181702E
:102E90000421C17070470246002093680B400BB1BB
:102EA000012000E0002070470146886880B270472A
:102EB00002460020D3680B400BB1012000E0002047
:102EC00070470146C86880B2704701617047416130
:102ED00070470AB1016100E041617047C16070470D
:102EE0004FF480320A438261816182618269826922
:102EF000704702460020434B18684FF68073184015
:102F000040EA021008433F4B186070473E49C861D1
:102F10007047F0B50A46002300240021002500F088
:102F20000046B6F1004F02D1364EF16901E0354E50
:102F30007168C0F3034583B200F44016B6F5401F34
:102F400008D121F070612F4E766826F070662D4F03
:102F50007E6012E000F48016B6F5801F06D10326CD
:102F600006FA05F4A14341F0706106E0460D360112
:102F700003FA06F6B14341F0706122B1460D360105
:102F800003FA06F6314300F00046B6F1004F02D1D5
:102F90001C4EF16101E01B4E7160F0BD30B50022A6
:102FA0008B071C0F0F2303FA04F2164B08338C1007
:102FB00053F824309343134C08348D1044F82530D3
:102FC00023468C1053F824308C07240F00FA04F4A5
:102FD00023430C4C08348D1044F8253030BD0A4989
:102FE000DC3108607047000000080140000C01401F
:102FF000001001400014014000180140001C014075
:10300000002001400000014000002042DF4800682D
:1030100040F00100DD49086008464068DC4908408E
:10302000DA49486008460068DA490840D74908602C
:103030000846006820F4802008600846406820F4B4
:10304000FE0048604FF41F0088607047CF49096850
:1030500021F48031CD4A11601146096821F48021A4
:103060001160B0F5803F03D0B0F5802F0ED106E09F
:10307000C649096841F48031C44A116007E0C34978
:10308000096841F4A021C14A116000E000BF00BFFF
:10309000704710B501460022002300204A11012A82
:1030A00002D1BA4C236806E0022A02D1B74C236A47
:1030B00001E0B64C636A01F01F02012494401C40F9
:1030C0000CB1012000E0002010BD38B500200090B8
:1030D0000024002500BF3120FFF7DBFF05460098E4
:1030E000401C00900098B0F5A06F01D0002DF2D0E8
:1030F0003120FFF7CEFF08B1012400E00024204674
:1031000038BD01460020A14A106820F0F80040EACE
:10311000C10010607047A049086070470246002057
:103120009A4B586820F47C1042EA01031843974BED
:103130005860704798490866704701460020934AD6
:10314000506820F003000843506070478F48406883
:1031500000F00C007047014600208C4A506820F0B7
:10316000F00008435060704701460020874A5068CD
:1031700020F4E06008435060704701460020834A15
:10318000506820F4605040EAC1005060704729B197
:103190007E4A527A02437D4B5A7204E07B4A527A4D
:1031A00082437A4B5A7270477B49D8310860704726
:1031B00001460020754A506820F4404008435060A2
:1031C00070470021714A20321170704A82F8201035
:1031D000012802D004280AD104E001216B4A2032E0
:1031E000117005E00521694A2032117000E000BF2E
:1031F00000BF70476949086070476449096A014324
:10320000624A11627047654944390860704730B5B9
:1032100000210022002400235C4D6D6805F00C01A4
:1032200021B1042905D0082923D105E05C4D0560B2
:1032300022E05B4D05601FE0544D6D6805F470128F
:10324000524D6D6805F48034022505EB92421CB99D
:10325000544D554305600BE04C4D6D6805F4003549
:103260001DB1504D5543056002E04D4D554305607D
:1032700002E04B4D056000BF00BF444D6D6805F096
:10328000F0010909484D6B5C0568DD4045603F4D24
:103290006D6805F4E061090A434D6B5C4568DD40EB
:1032A00085603A4D6D6805F46051C90A3E4D6B5C0E
:1032B0004568DD40C560354D6D6805F44041890BBA
:1032C0003A4D6B5CC568B5FBF3F5056130BD29B1BE
:1032D0002E4A526902432D4B5A6104E02B4A52692F
:1032E00082432A4B5A61704729B1284A92690243A6
:1032F000264B9A6104E0254A92698243234B9A61E6
:10330000704729B1214AD2690243204BDA6104E0B7
:103310001E4AD26982431D4BDA61704729B11B4AAC
:10332000D2680243194BDA6004E0184AD26882433B
:10333000164BDA60704729B1144A12690243134BE5
:103340001A6104E0114A12698243104B1A617047F6
:1033500012494039086070470F49C86470470B49EB
:10336000C87170470948406A40F080700749486258
:10337000704701460020054A92680A400AB10120C0
:1033800000E0002070470149887270470010024039
:103390000000FFF8FFFFF6FE0000424280044242B8
:1033A00000127A0000093D00C8060020D80600205F
:1033B00010B50446FB48844209D101218803FFF778
:1033C000ADFF00214FF48040FFF7A8FF32E0F64840
:1033D000844209D101214804FFF7ADFF00214FF4D9
:1033E0000030FFF7A8FF25E0F048844209D1012111
:1033F0008804FFF7A0FF00214FF48020FFF79BFF18
:1034000018E0EB48844209D10121C804FFF793FF7B
:1034100000214FF40020FFF78EFF0BE0E5488442C7
:1034200008D101210805FFF786FF00214FF4801025
:10343000FFF781FF10BD2DE9F04786B005460E4627
:103440000024A24600BFA1460027B08900B100BFFA
:103450002F462C8A4CF6FF700440F08804432C82DF
:10346000AC894EF6F3100440B08831890843718965
:1034700008430443AC81AC8A4FF6FF400440B08956
:103480000443AC8201A8FFF7C2FEC648874202D1BE
:10349000DDF810A001E0DDF80CA0A88900F40040E0
:1034A00040B10AEBCA0000EB0A1031684900B0FBDA
:1034B000F1F807E00AEBCA0000EB0A103168890056
:1034C000B0FBF1F86420B8FBF0F00401200964219E
:1034D00001FB1089A88900F4004040B1322000EBC4
:1034E000C900B0FBF1F000F00700044308E032200F
:1034F00000EB09106421B0FBF1F000F00F00044371
:103500002C8106B0BDE8F0874FF416510160002110
:103510008180C18001810C2141810021818170471E
:1035200010B502460020108A4FF2FF0318400B88A6
:103530004C8823438C882343CC8823431843108230
:1035400010BD0021018041808180C180704721B180
:10355000828942F40052828104E082894DF6FF7331
:103560001A4082817047F0B50346002400260025EA
:10357000002040F66A17B94200D100BF1846C1F3D7
:10358000421401F01F06012707FA06F5012C01D1AC
:103590000C3004E0022C01D1103000E014301AB1DC
:1035A00007682F43076002E00768AF430760F0BD7C
:1035B0001AB1838A0B43838202E0838A8B4383821E
:1035C0007047028A4FF6F0731A400282028A0A4359
:1035D0000282704782894FF2FF731A40828182898A
:1035E0000A438281704721B1828942F002028281BE
:1035F00004E082894FF6FD731A4082817047028A87
:103600004FF6DF731A400282028A0A430282704731
:1036100021B1028A42F48042028204E0028A4BF61F
:10362000FF731A4002827047C1F30802828070471C
:1036300001468888C0F308007047818941F0010184
:1036400081817047028BD2B20283028B42EA01224F
:1036500002837047028B02F47F420283028B0A438B
:103660000283704721B1828A42F02002828204E004
:10367000828A4FF6DF731A408282704721B1828AB4
:1036800042F01002828204E0828A4FF6EF731A4001
:103690008282704721B1828A42F00802828204E06D
:1036A000828A4FF6F7731A408282704721B182896D
:1036B00042F40042828103E08289C2F30E028281D9
:1036C000704721B1828A42F40062828204E0828AD9
:1036D0004FF2FF731A4082827047828A4FF6FB7363
:1036E0001A408282828A0A438282704721B1828A8A
:1036F00042F00202828204E0828A4FF6FD731A4091
:103700008282704702460020B1F5007F00D100BFE1
:1037100013880B400BB1012000E00020704701F43A
:103720000072B2F5007F00D100BFCA43028070472B
:1037300070B50246002400230025002040F66A16DA
:10374000B14200D100BFC1F3421501F01F030126B1
:1037500006FA03F3012D02D19689334006E0022DCB
:1037600002D1168A334001E0968A33400C120126BA
:1037700006FA04F41688344013B10CB1012000E0BD
:10378000002070BD10B50022002340F66A14A1424B
:1037900000D100BF0A1201249440A3B2DC4304808C
:1037A00010BD0000003801400044004000480040C7
:1037B000004C00400050004031490143314A116043
:1037C000704770B5002100230F22C47804B32D4C3C
:1037D000246804F4E064C4F5E064210AC1F1040340
:1037E000CA40447804FA03F1847814402143090163
:1037F000254C0678A155047804F01F050124AC403F
:1038000005786D11AD0005F1E025C5F8004109E02E
:10381000047804F01F050124AC401C4D0678761195
:1038200045F8264070BD1A4A0A400243154B1B1F3B
:103830001A60704739B1134A121D12680243114BC6
:103840001B1D1A6006E00F4A121D126882430D4BC1
:103850001B1D1A607047042808D14FF0E021096948
:1038600041F004014FF0E022116107E04FF0E02148
:10387000096921F004014FF0E02211617047000056
:103880000000FA050CED00E000E400E080E100E05B
:1038900080FFFF1F10B50446F748844209D101217B
:1038A0004805FFF748FD00214FF40010FFF743FDE6
:1038B00008E001218805FFF73EFD00214FF480005C
:1038C000FFF739FD10BD2DE9F04385B004460D46E4
:1038D0000026B1460427DFF8A483A6884FF6C070FF
:1038E00006406846FFF793FCDDF80880E448B8FB23
:1038F000F0F01FFA80F946EA0906A68020884FF604
:10390000FE71084020800026DE49286888420CD8D5
:1039100028684000B8FBF0F087B2042F00DA0427D3
:103920003E4309F10100208427E0E8884BF6FF714F
:10393000884206D1286800EB4000B8FBF0F087B25F
:1039400009E0286800EBC00101EB0010B8FBF0F0C3
:1039500087B247F48047C7F30B0008B947F0010767
:1039600047F4004006434FF4967009FB00F04FF413
:103970007A7190FBF1F0401C2084A683208840F0EF
:103980000100208026884FF6F5300640A888698916
:10399000084306432680A88929890843208105B069
:1039A000BDE8F08341F288310160002181804BF64F
:1039B000FF71C1800021018141814FF480418181EB
:1039C000704721B1028842F00102028004E00288BF
:1039D0004FF6FE731A400280704721B1828842F48C
:1039E0000062828004E082884FF2FF731A40828076
:1039F000704721B1828842F48052828004E082883C
:103A00004EF6FF731A408280704721B1028842F45B
:103A10008072028004E002884FF6FF631A40028041
:103A2000704721B1028842F40072028004E00288EB
:103A30004FF6FF531A400280704721B1028842F4CA
:103A40008062028004E002884FF6FF331A40028051
:103A500070470A46002181894FF60173194002F030
:103A6000FE0319438181704721B1828942F001022E
:103A7000828104E082894FF6FE731A40828170478A
:103A800021B1028842F04002028004E002884FF631
:103A9000BF731A40028070471AB183880B4383803A
:103AA00002E083888B438380704701827047014620
:103AB000088AC0B2704712B141F0010102E04FF62E
:103AC000FE7319400182704708B50246002000903D
:103AD00000920098084400900098008808BD21B129
:103AE000028842F40042028003E00288C2F30E0220
:103AF00002807047B1F5006F04D1028842F4006281
:103B0000028004E002884FF2FF731A40028070477F
:103B1000B1F5005F04D1028842F40052028004E053
:103B200002884DF6FF731A400280704721B1028867
:103B300042F48052028004E002884EF6FF731A407D
:103B400002807047B1F5006F04D1028842F4006230
:103B5000028004E002884FF2FF731A40028070472F
:103B600021B1028842F02002028004E002884FF670
:103B7000DF731A40028070470146088B00127047BD
:103B800021B1028842F01002028004E002884FF660
:103B9000EF731A400280704721B9028842F0800218
:103BA000028004E002884FF67F731A40028070475B
:103BB000B1F5804F05D0828B4BF6FF731A4082839C
:103BC00003E0828B42F480428283704770B50246E4
:103BD0000024002500230020958A138B1B0445EA4E
:103BE000030626F07F4404EA01068E4201D101203B
:103BF00000E0002070BD10B5014600200023002227
:103C00008B8A0A8B120443EA020424F07F4010BD21
:103C10000CB50246002000230193009300920B0F85
:103C2000019321F07F41019B1BB1009B1433009352
:103C300003E0090C009B18330093009B1B680B40AA
:103C40000BB1012000E000200CBD002221F07F42DA
:103C5000D3438382704730B5024600200023948806
:103C600001F0E06504EA154321F07F41948A0C409D
:103C700054B14BB1012008E00054004000127A001A
:103C800040420F00A0860100002030BD002221F03C
:103C90007F42D3438382704710B50446FA4884427A
:103CA00008D101214015FFF739FB00216015FFF70E
:103CB00035FB17E0F548844208D101210015FFF7D4
:103CC0002DFB00212015FFF729FB0BE0F048844273
:103CD00008D10121C803FFF721FB00214FF4004068
:103CE000FFF71CFB10BD30B50246002000235068D2
:103CF000E84C20400D790C6844EA052420435060CC
:103D00009068E54C2040D1E902542C434D7944EAB7
:103D1000450420439060D06A20F470000C7C641E3F
:103D2000E4B2234340EA0350D06230BD0021016079
:103D3000017141718160C16001210174704721B13D
:103D4000826842F00102826003E0826822F0010290
:103D50008260704721B1826842F48072826003E021
:103D6000826822F480728260704710B50023CBB263
:103D70001AB144681C43446002E044689C434460B8
:103D800010BD816841F00801816070470146002044
:103D90008A6802F008020AB1012000E000207047A2
:103DA000816841F0040181607047014600208A6803
:103DB00002F004020AB1012000E00020704721B1A6
:103DC000826842F4A002826003E0826822F4A002CA
:103DD00082607047014600208A6802F480020AB1BE
:103DE000012000E00020704710B50A4600210023A2
:103DF000416821F46041531E41EA4331416010BDE6
:103E000021B1426842F40062426003E0426822F459
:103E1000006242607047F0B504460D460020002164
:103E2000092D11DDE068A5F10A0606EB4607072615
:103E300006FA07F18843A5F10A0606EB460603FADF
:103E400006F10843E0600CE0206905EB4507072612
:103E500006FA07F1884305EB450603FA06F1084325
:103E60002061072A0FDA606B561E06EB86071F26B5
:103E700006FA07F18843561E06EB860605FA06F198
:103E80000843606322E00D2A0FDA206BD61F06EB91
:103E900086071F2606FA07F18843D61F06EB86061B
:103EA00005FA06F10843206310E0E06AA2F10D066E
:103EB00006EB86071F2606FA07F18843A2F10D06D6
:103EC00006EB860605FA06F10843E062F0BD21B173
:103ED000826842F48012826003E0826822F48012D9
:103EE000826070470146C86C80B2704766484C30AB
:103EF0000068704721B1426842F48062426003E08A
:103F0000426822F480624260704721B1426842F404
:103F10008052426003E0426822F48052426070475F
:103F20000A460021816821F4E04111438160704715
:103F300021B1826842F40042826003E0826822F488
:103F400000428260704721B1826842F402128260AE
:103F500003E0826822F4021282607047014600206A
:103F60008A6802F400120AB1012000E000207047C4
:103F7000F0B504461546002000220026092911DD6F
:103F8000E068A1F10A0707EB470C072707FA0CF2D4
:103F90009043A1F10A0707EB470703FA07F2104322
:103FA000E0600CE0206901EB410C072707FA0CF2F6
:103FB000904301EB410703FA07F210432061A06B25
:103FC000C0F30156EF1C06F1010CA7EB0C0707EB41
:103FD000870C1F2707FA0CF29043EF1C06F1010C27
:103FE000A7EB0C0707EB870701FA07F21043A06362
:103FF000F0BD10B50A4600210023816B21F4401169
:10400000531E41EA0351816310BD08B5002300939C
:104010000090009B0B440093009B1A6008BD08B5FC
:10402000024600200090009201F12800009B1844F5
:1040300000900098006880B208BD0A4600214168DF
:10404000164B1940114341607047416282627047CC
:104050000A460021416821F01F0111434160704769
:1040600040B109490831096841F40001064A0832A3
:10407000116007E004490831096821F40001024A8F
:104080000832116070470000002401400028014000
:10409000003C0140FFFEF0FFFDF7F1FFFFFD3FFF99
:1040A0000246002013680B400BB1012000E0002005
:1040B0007047CA430260704770B502460020002373
:1040C00000240B125568CEB205EA060415681D409F
:1040D00015B10CB1012000E0002070BD00220A12D1
:1040E000D34303607047000001684FF6FE72114031
:1040F00001600021016041608160C1608D4988429A
:1041000008D18C490839496841F00F01894A083AB9
:1041100051608AE087491431884208D185490839BD
:10412000496841F0F001834A083A51607DE08149D5
:104130002831884208D17F490839496841F47061C3
:104140007C4A083A516070E07A493C31884208D193
:1041500078490839496841F47041764A083A516013
:1041600063E074495031884208D17249083949687E
:1041700041F470216F4A083A516056E06D4964314C
:10418000884208D16B490839496841F47001694A8D
:10419000083A516049E067497831884208D1654959
:1041A0000839496841F07061624A083A51603CE060
:1041B0006149884206D1011F096841F00F01021FC1
:1041C000116032E05C491431884208D15A49091F14
:1041D000096841F0F001584A121F116025E0564964
:1041E0002831884208D15449091F096841F4706197
:1041F000514A121F116018E04F493C31884208D1E2
:104200004D49091F096841F470414B4A121F116062
:104210000BE049495031884207D14749091F0968D5
:1042200041F47021444A121F1160704710B50022FA
:10423000026847F6F0739A430C6A8B6823430C6953
:1042400023434C6923438C692343CC6923434C6A41
:1042500023438C6A23431A430260CB6843600B6894
:1042600083604B68C36010BD0021016041608160C4
:10427000C160016141618161C1610162416281622C
:10428000704721B1026842F00102026004E0026856
:104290004FF6FE731A40026070471AB103680B4371
:1042A000036002E003688B4303607047416070471E
:1042B0000146486880B2704701460020002201F0A4
:1042C00080531BB11C4B083B1A6802E0194B083B9A
:1042D0001A6802EA01030BB1012000E000207047D8
:1042E00000F0805119B11449091F086002E011491A
:1042F00008394860704701460020002201F08053D1
:104300001BB10D4B083B1A6802E00A4B083B1A68C8
:1043100002EA01030BB1012000E00020704700F029
:10432000805119B10449091F086002E001490839A8
:1043300048607047080002400804024010B5044677
:10434000FE48844208D10121C014FEF7E7FF002196
:10435000E014FEF7E3FFC4E0B4F1804F08D101217F
:104360000846FEF7E8FF00210120FEF7E4FFB8E071
:10437000F348844208D101210220FEF7DCFF00212E
:104380000220FEF7D8FFACE0EE48844208D10121BC
:104390000420FEF7D0FF00210420FEF7CCFFA0E0B0
:1043A000E948844208D101210820FEF7C4FF00211A
:1043B0000820FEF7C0FF94E0E448844208D10121C0
:1043C0001020FEF7B8FF00211020FEF7B4FF88E0B0
:1043D000DF48844208D101212020FEF7ACFF0021F4
:1043E0002020FEF7A8FF7CE0DA48844208D10121B2
:1043F0004014FEF793FF00216014FEF78FFF70E07A
:10440000D548844209D10121C804FEF787FF002165
:104410004FF40020FEF782FF63E0D048844209D1C8
:1044200001210805FEF77AFF00214FF48010FEF706
:1044300075FF56E0CA48844209D101214805FEF7BC
:104440006DFF00214FF40010FEF768FF49E0C548FA
:10445000844208D101214020FEF76DFF0021402059
:10446000FEF769FF3DE0C048844208D10121802069
:10447000FEF761FF00218020FEF75DFF31E0BB48C1
:10448000844208D101218015FEF755FF0021A015B7
:10449000FEF751FF25E0B648844209D10121080406
:1044A000FEF73CFF00214FF48030FEF737FF18E0A5
:1044B000B048844209D101214804FEF72FFF0021B2
:1044C0004FF40030FEF72AFF0BE0AB48844208D1DE
:1044D00001218804FEF722FF00214FF48020FEF71F
:1044E0001DFF10BD00220288944B98420ED0994BBC
:1044F00098420BD0B0F1804F08D0914B984205D034
:10450000904B984202D0904B984204D14FF68F7353
:104510001A404B881A438D4B984207D08C4B9842D7
:1045200004D04FF6FF431A40CB881A4302808B8891
:1045300083850B880385814B98420BD0854B98422D
:1045400008D08B4B984205D08A4B984202D08A4BB8
:10455000984201D10B7A038601238382704770B59C
:10456000002400220023058C4FF6FE76354005849A
:10457000028C8388048B4FF68F752C40B51E2C401F
:104580000D882C43751E2A400D892A434D882A43E5
:104590006A4DA8420BD06F4DA84208D0744DA84276
:1045A00005D0744DA84202D0734DA84213D14FF6E6
:1045B000F7752A404D892A434FF6FB752A408D88AE
:1045C0002A434FF6FF652B404FF6FF552B408D8950
:1045D0002B43CD892B4383800483CD888586028439
:1045E00070BD70B5002400220023058C4FF6EF76D5
:1045F00035400584028C8388048B48F6FF752C4077
:104600004FF6FF452C400D884FF6FF7606EA05254C
:104610002C434FF6DF752A400D8906EA05152A431B
:104620004D8806EA05152A43444DA84202D0494D5B
:10463000A8421DD14FF67F752A404D894FF6FF766F
:1046400006EA05152A434FF6BF752A408D8806EA0B
:1046500005152A434FF6FF352B404FF2FF752B40CF
:104660008D8906EA85052B43CD8906EA85052B430E
:1046700083800483CD880587028470BD70B50024D3
:1046800000220023058C4FF6FF6635400584028C1E
:104690008388848B4FF68F752C404FF6FC752C4029
:1046A0000D882C434FF6FF552A400D894FF6FF76B3
:1046B00006EA05252A434D8806EA05252A431F4DAB
:1046C000A84202D0234DA8421DD14FF2FF752A40C7
:1046D0004D894FF6FF7606EA05252A434FF6FF354A
:1046E0002A408D8806EA05252A434EF6FF752B40A1
:1046F0004DF6FF752B408D8906EA05152B43CD89B4
:1047000006EA05152B4383808483CD888587028440
:1047100070BD70B5002200230024058C4EF6FF7694
:1047200035400584038C8488828B48F6FF752A40C7
:104730004FF6FF452A400D8820E00000002C014084
:104740000004004000080040000C00400010004041
:104750000014004000340140004C01400050014072
:104760000054014000180040001C004000200040A0
:104770000040014000440140004801404FF6FF76F0
:1047800006EA05252A434DF6FF752B400D8906EAFA
:1047900005352B434D8806EA05352B43FA4DA842D3
:1047A00002D0FA4DA84208D14BF6FF752C408D89F6
:1047B0004FF6FF7606EA85152C4384808283CD88E8
:1047C000A0F84050038470BD828B4FF2FF331A4033
:1047D0008283828B4FF6FF7303EA01231A4382839D
:1047E0007047F0B50C461546002200210026078CC4
:1047F0004EF6FF7C07EA0C070784828B018C4FF68C
:10480000FF7707EA043640F6FF473A404FF6FF7756
:1048100007EA05273A434FF6FF7707EA03373A439B
:10482000D94FB8420ED0D94FB8420BD0B0F1804F1B
:1048300008D0D74FB84205D0D64FB84202D0D64F95
:10484000B84206D14DF6FF77394046F480573943D8
:1048500005E047F6FF57394044F4805739438283D7
:104860000184F0BD828B4FF6F3731A408283828BF2
:104870000A4382837047F0B50C461546002200219A
:104880000026078C4FF6FF6C07EA0C070784828B23
:10489000018C4FF6FF7707EA04264FF60C773A4073
:1048A0004FF6FF7707EA03172F433A43B64FB84254
:1048B0000ED0B64FB8420BD0B0F1804F08D0B44FF5
:1048C000B84205D0B34FB84202D0B34FB84206D178
:1048D0004FF6FF57394046F48077394305E04FF2F1
:1048E000FF57394044F48077394382830184F0BD17
:1048F000028B4FF2FF331A400283028B4FF6FF7395
:1049000003EA01231A4302837047F0B50C461546AB
:10491000002200210026078C4FF6EF7C07EA0C07E7
:104920000784028B018C4FF6FF7707EA041640F6E6
:10493000FF473A404FF6FF7707EA03373A434FF60F
:10494000FF7707EA05273A438F4FB8420ED08F4FC3
:10495000B8420BD0B0F1804F08D08D4FB84205D08F
:104960008C4FB84202D08C4FB84206D14FF6DF7759
:10497000394046F01007394305E04FF65F7739407C
:1049800044F01007394302830184F0BD028B4FF6D7
:10499000F3731A400283028B0A4302837047F0B517
:1049A0000C46154600220021068C4FF6FE773E404D
:1049B0000684028B018C4FF60C7632407E1C06EA90
:1049C00003162E433243704EB0420ED06F4EB042AB
:1049D0000BD0B0F1804F08D06D4EB04205D06D4E77
:1049E000B04202D06C4EB04206D14FF6FD76314057
:1049F00044F00106314305E04FF6F576314044F0CE
:104A00000106314302830184F0BD70B505460C46B2
:104A10005D4885420ED05D4885420BD0B5F1804F90
:104A200008D05B48854205D05A48854202D05A4892
:104A3000854200D100E000BF208850B92389A288B8
:104A400061882846FFF7ABFFE1882846FFF79EFF05
:104A500025E0208804280AD12389A2886188284675
:104A6000FFF753FFE1882846FFF742FF17E0208851
:104A700008280AD12389A28861882846FFF7FBFE0F
:104A8000E1882846FFF7EEFE09E02389A2886188C5
:104A90002846FFF7A6FEE1882846FFF795FE70BD81
:104AA0002DE9F04105460C4600260127608808B92B
:104AB000022600E00026A088012801D1022700E09C
:104AC00001272088A0B92389A28861882846FFF79A
:104AD00066FFE1882846FFF759FF23893A463146A9
:104AE0002846FFF712FFE1882846FFF701FF13E091
:104AF0002389A28861882846FFF707FFE1882846B6
:104B0000FFF7F6FE23893A4631462846FFF747FF6E
:104B1000E1882846FFF73AFFBDE8F0810A884B8814
:104B20001A438B881A43CB881A430B891A434B8943
:104B30001A438B891A43A0F8442070474FF6FF713F
:104B4000818000210180C180418001727047002175
:104B5000018041808180C180018141818181C18149
:104B60007047002101804180012181800021C180A6
:104B7000018170470021018041808180C1800181D5
:104B80004181818170470000002C014000340140C8
:104B90000004004000080040000C004021B10288E1
:104BA00042F00102028004E002884FF6FE731A40D0
:104BB0000280704731B1B0F8442042F40042A0F8BE
:104BC000442005E0B0F84420C2F30E02A0F84420CF
:104BD00070471AB183890B43838102E083898B4339
:104BE000838170478182704741EA0203A0F8483010
:104BF00070471AB183890B43838102E083898B4319
:104C00008381704701894FF6F87211400181704726
:104C10000A46002101894FF68F7319401143018123
:104C2000704730B504460D4629462046FFF7F0FF91
:104C3000208940F00700208130BD2DE9F041044675
:104C40000D4616461F46602D06D13B4601223146D1
:104C50002046FFF75AFE05E03B460122314620463A
:104C6000FFF79DFE29462046FFF7D2FF208940F03E
:104C700007002081BDE8F08130B50C460021018994
:104C8000C9B24FF6FF7505EA0325154325432943AD
:104C9000018130BD2DE9F04105460E461746984684
:104CA000002443463A4631462846FFF7E5FF2C8963
:104CB0004FF6F870044044F007044FF68F7004403C
:104CC00044F070042C81BDE8F081F0B504460D4637
:104CD00016461F463B46324629462046FFF7CCFF84
:104CE000208940F480402081F0BD01858282704798
:104CF0000A46002101884FF68F7319401143018045
:104D00007047F0B50C4615461E46002100220023D0
:104D10000189028B038C4FF6F877394021434FF617
:104D2000FC473A4040F201173A434FF6DD773B40EB
:104D30004FF6FF7707EA06172F433B4301810283B3
:104D40000384F0BD0A460021018B4FF68F73194092
:104D50001143018370470A460021018B48F6FF7317
:104D600019404FF6FF7303EA02231943018370478A
:104D70000A460021818B4FF68F73194011438183BE
:104D800070470A460021818B48F6FF7319404FF6A1
:104D9000FF7303EA022319438183704721B102881C
:104DA00042F08002028004E002884FF67F731A40CE
:104DB0000280704721B1828842F00402828004E0C0
:104DC00082884FF6FB731A408280704721B1828837
:104DD00042F00802828004E082884FF6F7731A409E
:104DE0008280704721B1828842F00102828004E013
:104DF00082884FF6FE731A40828070470A4600216F
:104E0000018B4FF6F77319401143018370470A462F
:104E10000021018B4FF2FF7319404FF6FF7303EA35
:104E200002231943018370470A460021818B4FF604
:104E3000F77319401143818370470A460021818B23
:104E40004FF2FF7319404FF6FF7303EA0223194331
:104E5000818370470A460021018B4FF6FB7319408E
:104E60001143018370470A460021018B4FF6FF333F
:104E700019404FF6FF7303EA022319430183704779
:104E80000A460021818B4FF6FB7319401143818341
:104E900070470A460021818B4FF6FF3319404FF6C9
:104EA000FF7303EA02231943818370470A460021F6
:104EB000018B4FF67F7319401143018370470A46F7
:104EC0000021018BC1F30E014FF6FF7303EA0223A9
:104ED0001943018370470A460021818B4FF67F7387
:104EE00019401143818370470A460021818BC1F329
:104EF0000E014FF6FF7303EA0223194381837047C3
:104F00000A460021018C4FF6FD73194011430184BC
:104F100070470A460021018C4FF6F7731940114380
:104F2000018470470A460021018C4FF6DF73194057
:104F30004FF6FF7303EA02131943018470470A46D0
:104F40000021018C4FF67F7319404FF6FF7303EA7F
:104F500002131943018470470A460021018C4FF661
:104F6000FF5319404FF6FF7303EA022319430184EC
:104F700070470A460021018C4FF2FF7319404FF62B
:104F8000FF7303EA02231943018470470A46002194
:104F9000018C4DF6FF7319404FF6FF7303EA02339D
:104FA00019430184704730B5002301248C40A3B21B
:104FB000048C9C430484048C02FA01F5ADB22C43AA
:104FC000048430BD30B5002304248C40A3B2048C8B
:104FD0009C430484048C02FA01F5ADB22C43048492
:104FE00030BD70B503460020002418461830012556
:104FF0008D40ACB21D8CA5431D8409B1082909D18F
:1050000000EB6100056825F0700505600568154333
:1050100005600EE00D1FC5F34E052844056825F414
:10502000E045056005684FF6FF7606EA022635433F
:10503000056070BD21B1028842F00202028004E0E6
:1050400002884FF6FD731A400280704721B1028832
:1050500042F00402028004E002884FF6FB731A401B
:105060000280704721B1828842F08002828004E091
:1050700082884FF67F731A408280704702884FF60D
:10508000F7731A40028002880A43028070478288C0
:105090004FF68F731A40828082880A43828070475D
:1050A00002894FF6F8731A40028102890A4302818D
:1050B000704702894FF67F731A40028102890A43C2
:1050C000028170478184704781857047818670476F
:1050D0000187704781877047A0F8401070470288A9
:1050E0004FF6FF431A40028002880A43028070474D
:1050F0000146888E70470146088F70470146888FA9
:1051000070470146B1F8400070470146888C7047EF
:105110000146088D704702460020138A0B400BB1F0
:10512000012000E000207047CA430282704730B57A
:105130000246002000230024158A05EA0103958910
:1051400005EA010413B10CB1012000E0002030BDDC
:10515000CA430282704740EA01039B0703D009E07B
:1051600008C9121F08C0042AFAD203E011F8013B53
:1051700000F8013B521EF9D27047421C10F8011B87
:105180000029FBD1801A704710B5002200E0521CA4
:10519000835C8C5CA34201D1002BF8D1D8B2E1B280
:1051A000401A10BD2DE9FE4F81EA030404F00044CB
:1051B00021F0004100944FF0000B23F0004350EA2F
:1051C00001045ED052EA03045BD0C3F30A54C1F376
:1051D0000A552C44A4F2F3340194A0FB0254C1F309
:1051E000130141F48011C3F3130343F4801301FB53
:1051F000024400FB034E840A970A44EA815447EABA
:105200008357A4FB076802958D0A05FB07854FEAC3
:10521000932C04FB0C542705029D4FEA065847EADD
:105220001637B5EB08056EEB070C870E920E47EAB2
:10523000811742EA8312A7FB0201B6EB0B0164EB74
:1052400000042B0D43EA0C335E1844EB1C50DA4685
:105250005146E7FB0201C5F313044FEA0B3343EA5F
:1052600014534FEA0432019C43EA0603A4F10C04F0
:105270000294009CCDE900B400F0DFF803B0BDE873
:10528000F08F00200146F9E796230022114600F036
:1052900097B800F0004230F000400AD0C10D01F58F
:1052A0006071C0F3160042EA0151C2084007114381
:1052B000704700200146704730B5041E71F10004AC
:1052C00004DB4FF00044404264EB0101141E73F113
:1052D000000405DB1C464FF00043524263EB04031D
:1052E000994208BF904230BD01F0004330B421F034
:1052F000004150EA010206D00A0DA2F56072C1F326
:105300001301002A02DC30BC00207047440F44EA3D
:10531000C104C100E01830BC00EBC25000F047B837
:1053200030B50B46014600202022012409E021FA75
:1053300002F59D4205D303FA02F5491B04FA02F572
:105340002844151EA2F10102F1DC30BD2DE9F05F09
:105350000546002092469B468846064681464024E4
:105360001BE0284641464746224600F004FA5346D1
:105370005A46C01A914110D311461846224600F0F1
:10538000EBF92D1A67EB01084F4622460120002158
:1053900000F0E2F917EB00094E41201EA4F10104D0
:1053A000DFDC484631462A464346BDE8F09F0029E7
:1053B000A8BF7047401C490008BF20F0010070479B
:1053C00010B4B0FA80FC00FA0CF050EA010404BFFB
:1053D00010BC704749B1CCF1200421FA04F411FA51
:1053E0000CF118BF012121430843A3EB0C01CB1D95
:1053F0004FEA00614FEA102042BF002010BC704706
:1054000000EBC35010440029A4BF10BC7047401CDF
:10541000490008BF20F0010010BC704710B5141EF1
:1054200073F1000408DA401C41F1000192185B415D
:105430001A4301D120F0010010BD2DE9F04D924634
:105440009B4611B1B1FA81F202E0B0FA80F220324B
:10545000904600F081F904460F4640EA0A0041EA0E
:105460000B0153465A46084313D0114653EA010034
:1054700019D0C8F14002504600F07DF905460E46AD
:1054800050465946424600F067F9084305D00120CE
:1054900004E020463946BDE8F08D0020054346EA89
:1054A000E0762C4337430A986305E40AA0EB080032
:1054B0000022FD0A44EA47540A3002D50020014682
:1054C000E9E7010510196941DDE90845001969415D
:1054D000BDE8F04DA2E72DE9FE4F804681EA0300CA
:1054E000C00F0C46009021F0004123F00045B8EBBE
:1054F0000200A94105D24046214690461C460B4673
:10550000024623F00040104347D0270DC7F30A009E
:10551000C3F30A510290401A019040286BDAC3F39A
:10552000130040F4801B0098924620B10023D2EB78
:10553000030A63EB0B0B01985946C0F14002504639
:1055400000F00AF906460D4650465946019A00F009
:1055500022F910EB08006141002487EA115284EA25
:10556000E7731A4340D0009A62B3019A012A4FEAC6
:10557000075215DC001B61EB02014FF0004202EA0A
:105580000752CDE90042001C41F5801132462B46FE
:10559000FFF753FF03B0BDE8F08F40462146F9E71F
:1055A000001B61EB0201001C41F5801300185B41F8
:1055B0002018A2F5001747EB030140EAD570B61991
:1055C0006D4111E06D084FEA360645EAC0754FEAB5
:1055D0000752001B61EB0201001C41F580114908D4
:1055E0004FEA30000019514132462B4603B0BDE866
:1055F000F04FFFF713BF0098012240000023D0EBCB
:10560000020263EBE073009821464FEAE074B8EBC6
:10561000000061EB0401E9E783F000435BE781F000
:10562000004158E72DE9F04D81EA030404F0004BF6
:1056300021F0004514464FF0000A23F0004150EAE3
:10564000050220D054EA01021DD0C5F30A570246D4
:10565000C5F31303C1F31300C1F30A5640F48015D8
:1056600043F48013A7EB0608101BD64608F2FD385A
:1056700073EB050002D308F1010801E092185B41C9
:10568000B8F1000F03DA00200146BDE8F08D0020DC
:105690004FF48011064684460EE0171B73EB050796
:1056A00005D3121B63EB050306434CEA010C4908C2
:1056B0004FEA300092185B4150EA0107EDD152EAFF
:1056C000030012D082EA040083EA0501084305D0F2
:1056D000101BAB4106D20122002306E000224FF04E
:1056E000004302E06FF0010253101AEB06004CEB8E
:1056F000085110EB0A0041EB0B01BDE8F04DFFF73C
:105700008DBEC1F30A52C1F3130140F2FF3341F4DD
:1057100080119A4202DA00200146704740F233437A
:105720009A42A2F2334202DC524200F024B800F066
:1057300013B80000064C074D06E0E06840F0010396
:1057400094E8070098471034AC42F6D3FAF7F4FC1B
:105750005069000870690008202A04DB203A00FA2A
:1057600002F1002070479140C2F1200320FA03F3B8
:10577000194390407047202A04DB203A21FA02F0B6
:105780000021704721FA02F3D040C2F1200291407B
:10579000084319467047202A06DBCB17203A41FA06
:1057A00002F043EAE07306E041FA02F3D040C2F1AE
:1057B0002002914008431946704770B58C1810F8C4
:1057C000015B15F0070301D110F8013B2A1106D146
:1057D00010F8012B03E010F8016B01F8016B5B1E60
:1057E000F9D12B0705D40023521E0DD401F8013B3B
:1057F000FAE710F8013BCB1A921C03E013F8015BA7
:1058000001F8015B521EF9D5A142D8D3002070BD2A
:105810000FB4054B10B503A9044A029800F0F0F844
:1058200010BC5DF814FB0000751B0008DC060020AE
:105830000FB4084B10B504A902AA039800F0E0F8D1
:10584000044602A9002000F072FC204610BC5DF85E
:1058500014FB00002F61000837B514460846064BBC
:105860006A46214600F0CCF804466946002000F064
:105870005EFC20463EBD00002F61000802E008C823
:10588000121F08C1002AFAD170477047002001E0BA
:1058900001C1121F002AFBD1704700002DE9FF5FF4
:1058A000DDE90220010DDDF838B0024318D044F6DE
:1058B0001050A1F2FF3141430D140F98012820D060
:1058C000A5EB0B00401C5FEA000A4FF00004474EB6
:1058D000DFF81C91A046504616D5CAF1000728E013
:1058E0000F98012443A2012808D0002100980F9BA3
:1058F000C0E90021C0E90243BDE8FF9F6FEA0B0148
:10590000F4E7CBF10000DEE7074612E0F80707D026
:105910002246334640464946FFF744FC80468946C6
:105920002246334610461946FFF73CFC04460E4615
:105930007F10002FEAD1DDE90201BAF1000F4246E3
:105940004B4602DAFFF72EFC01E0FFF76BFE044640
:105950000E460022284BFFF7AFFC03D84FF0FF3074
:10596000014607E00022254B20463146FFF7B3FDF4
:10597000FFF7C7FE102409E0002C0ADB0A220023EF
:10598000FFF7E4FC019B30321A55641E50EA010215
:10599000F2D1641C019AC4F1110314440F9A012A34
:1059A00003D0012208430DD10AE0084304D00020AF
:1059B0004FF0110B0F9080E7A3EB0B056D1E0DE070
:1059C0005B4504DD4FF0000205F1010504E003DA58
:1059D0004FF00002A5F10105002AECD000980F99C4
:1059E000C0E90231C0E9004586E70000000024401C
:1059F0000000F03F300000000000F0430000E03FF6
:105A00002DE9FF4F95B09B468946064600250FE2DB
:105A1000252877D100242746F84A0121059400E083
:105A2000044316F8013F203B01FA03F01042F7D17E
:105A300030782A2811D06FF02F033078A0F130028F
:105A4000092A16D8059A44F0020402EB820203EBFD
:105A500042021044761C0590EFE759F8042B05929A
:105A6000002A03DA504244F40054059044F0020442
:105A7000761C30782E2816D116F8010F44F0040455
:105A80002A280DD06FF02F023078A0F13003092BB7
:105A900009D807EB870302EB4303C718761CF3E72B
:105AA00059F8047B761C30786C280FD006DC4C2823
:105AB00017D068280DD06A2814D104E0742810D0BB
:105AC0007A280FD10DE044F400140AE044F4801465
:105AD00001E044F440147278824202D104F580144B
